:020000022000DC
:10600000000001205D630200456302004763020057
:10601000496302004B6302004D6302000000000070
:106020000000000000000000000000004F630200BC
:106030005163020000000000536302005563020038
:10604000B995020057630200D59902003D9A0200FB
:10605000119A020057630200519802005763020030
:106060005763020057630200576302001D9B020042
:106070005763020057630200576302005763020030
:1060800057630200316F020057630200576302003A
:10609000CD6F0200576302007DF9020057630200D2
:1060A0005763020057630200576302005763020000
:1060B0004D9B02005763020000000000000000003A
:1060C00057630200576302005763020057630200E0
:1060D0002D9B02005763020057630200000000007E
:1060E00000000000000000000000000000000000B0
:1060F00000000000000000000000000000000000A0
:10610000000000000000000000000000000000008F
:10611000000000000000000000000000000000007F
:10612000000000000000000000000000000000006F
:10613000000000000000000000000000000000005F
:10614000000000000000000000000000000000004F
:10615000000000000000000000000000000000003F
:10616000000000000000000000000000000000002F
:10617000000000000000000000000000000000001F
:10618000000000000000000000000000000000000F
:1061900000000000000000000000000000000000FF
:1061A00000000000000000000000000000000000EF
:1061B00000000000000000000000000000000000DF
:1061C00000000000000000000000000000000000CF
:1061D00000000000000000000000000000000000BF
:1061E00000000000000000000000000000000000AF
:1061F000000000000000000000000000000000009F
:10620000314932480A1A02D0072291438D4630495B
:1062100030480A1A06D00722914381F309880222E6
:1062200082F314882C482D492D4A00F03CF82D4863
:106230002D492E4A00F037F82D482E492E4A00F0FD
:1062400032F82E482E492F4A00F02DF82E482F49BB
:106250002F4A00F028F82F482F49304A00F023F841
:106260002F483049304A00F01EF8304830490022AB
:1062700000F024F82F483049002200F01FF82F4A80
:1062800090471F481F49884205D00268043003B474
:10629000904703BCF7E700208646EC46002000212B
:1062A000274A9047FEE7884207D0521A05D0037864
:1062B00001300B700131013AF9D17047884202D0A8
:1062C00002700130FAE770470000012000E0002072
:1062D0000000012000000120C0280300742D0020D0
:1062E00060330020BC630200BC63020088FF020030
:1062F000C0280300742D0020742D002058010300D5
:10630000580103005801030058010300580103001D
:10631000580103005801030058010300C02803007E
:10632000AC2E030060330020603300206033002077
:106330004C4F00204C4F00204C4F00208563020042
:10634000599F0200FEE7FEE7FEE7FEE7FEE7FEE7F5
:10635000FEE7FEE7FEE7FEE7704700BF1048804714
:1063600010484FF00701884385460F4880470F4883
:10637000016841F470010160BFF34F8FBFF36F8F6D
:10638000FFF73EBF0A480B490B4A884207D0521A12
:1063900005D0037801300B700131013AF9D1704713
:1063A00059630200000001201D91020088ED00E009
:0C63B00044010300602D0020742D00202B
:1063BC007047000007B5044B0093044A402300F0DB
:1063CC0032F803B05DF804FBDD630200613300209A
:1063DC002DE9F84389461446B2B10F4B0F4E0325F5
:1063EC00002743F00108224609EB0701002004F0C6
:1063FC0027FB0744241A48B933782BB14FF47A4061
:10640C00C047013D02D13570BDE8F88301233370DC
:10641C00002CE8D1F8E700BF6001030060330020D6
:10642C00704704F041BBF0B595B01C4616460846C3
:10643C000D4602F09BFD1A9B0D93CDE908640024D8
:10644C002346082205A928460A948DF82C400C9462
:10645C0002F0A9FD079B0293069B03939DF8143051
:10646C008DF8114003F00302012A1DD1BDF8144030
:10647C00059EC3F3C203C4F383148DF81030A2003D
:10648C0008230EA9284602F08EFDC6F3952608AB0C
:10649C000093224602AB0EA9304600F0D7FB2846EB
:1064AC0002F068FD15B0F0BD022AF8D1BDF8164017
:1064BC00C3F3C203A4098DF810300827082C264614
:1064CC0028BF08263B4632460EA9284602F06BFD33
:1064DC00A41B08AB02AA31460EA8374400F01AFCE4
:1064EC00002CEBD1DBE7000008B5FFF79AFF042185
:1064FC00034800F019FB034B01225A7108BD00BF81
:10650C0034010300742D0020037813F0040216D01C
:10651C0003F00303012B03D0022B09D00120704799
:10652C000A6800880232C0F3831002440A60F5E75F
:10653C000B684288023303EB92130B60EEE71046B4
:10654C00704700002DE9F04F87B000230446851CEE
:10655C000DF107000F4690468DF8073000F024FF30
:10656C00454806683E60D0E90132134401339B1B59
:10657C00824600F21C4600F5836900F21447AB42D8
:10658C001BD30022B8F1000F70D0052363F3070270
:10659C0064F38912DAF80010DAF808309DF8070075
:1065AC000B4003330D444AF82320CAF8005000F086
:1065BC001FFF012007B0BDE8F08F0121304601F02C
:1065CC003CFF484601F052FF384601F04FFFDAF825
:1065DC000400DAF808B0029000EA0B0003300AEB72
:1065EC00800002A9FFF790FF029B50BB0BEA03024D
:1065FC000AEB820203F1020CD2680392013303EA24
:10660C000B0B0AEB8B0B02F00302012ACDF808C02E
:10661C00DBF80C1022D0022A16D08346384601F043
:10662C0028FF10B1029BCAF804305946304601F0DD
:10663C0004FFDAE901231344DAF8002001339B1A32
:10664C009DE70BEA0300C9E7BDF80E309B09033345
:10665C004FEA114B0CEB93030293DFE7BDF80C30C0
:10666C00C3F383134FEA114B6344F5E7062363F33B
:10667C00070264F39F528DE7743400200B4B0C48D7
:10668C00FF2210B59A600022C3F81824C3E9002237
:10669C00C3F81424012283F8202402F020FC0446C1
:1066AC0010B9044802F0A0FC204610BD7434002040
:1066BC00F80003008401030030B50A4C71B10A4A9A
:1066CC000A49121BD20800239A4201D1002030BD86
:1066DC0031F82350854202D00133F5E7034654F8D4
:1066EC003300F4E710000300F8000300602D0020D5
:1066FC00094B013903EBC000032909D8DFE801F08D
:10670C000A020406042070470079704740797047EC
:10671C00002070470220704710000300034BD3E9A0
:10672C000030C31A58425841704700BF74340020DF
:10673C002DE9F04387B0FFF7F1FF0646002840F043
:10674C00FB807E4DC5F81804BFF34F8F6868AC68AA
:10675C0002902040033005EB800002A9FFF7D4FE25
:10676C00029B18B1D5F81824002A5FD004EA030262
:10677C00991C013305EB8202234005EB8303D2689D
:10678C00DB68049302F00303022B0392029162D1A3
:10679C00BDF80E306A484FEA9318B8F1500FC14655
:1067AC0028BF4FF0500969F38F1309F10801ADF8B8
:1067BC000E3002F0ACFB0746002800F0A88002F077
:1067CC00D5FB03A900230822384602F0E2FB02990C
:1067DC0024EA01060136B600B14535D95FFA89F9CC
:1067EC007EB3F6B2A9EB0609214003315FFA89F4B6
:1067FC00B146544E05EB810108234A46384602F057
:10680C00C8FB36B109F1080322463146384602F07E
:10681C00C0FB029B08F1030803EB98030293D5F825
:10682C001834002B4BD1D5F810445BE02A689A42FF
:10683C0004D86A60304607B0BDE8F08304EA030070
:10684C0088E740493446D7E72140033108234A46BC
:10685C0005EB8101DAE7012B59D1BDF80C30384832
:10686C00C3F38311062928BF062161F38913023172
:10687C008900ADF80C3002F04AFB0746002846D0E0
:10688C0002F074FB0023082203A9384602F081FBB6
:10689C000026BDF80C20C2F38312B300964203F11C
:1068AC000803BCD202994A1C21400331029205EB29
:1068BC0081010422384602F06CFB0136E9E73846C8
:1068CC0002F058FBFFF72AFF80F00100C6B2B1E7D7
:1068DC00E3685B7923B1236839461B6820469847E7
:1068EC00E3681C68002CF3D1384602F043FB0DF131
:1068FC0007008DF8074000F057FDD5F818340BB998
:10690C00029B6B609DF8070000F072FDDAE7D5F88A
:10691C00104454B90C4B0D480D49C01AC008000462
:10692C0040F0020000F06EF8CCE7236820469B682C
:10693C009847E3681C68ECE700267BE7743400207A
:10694C00F800030080340020100003005000030006
:10695C00900103002DE9F74F284C80460F469246D4
:10696C0001A9012218469B46D4F80890FFF7EAFDCE
:10697C0080B3019D0026A91C5E4506EB010233D1B4
:10698C0000211F4801F018FD80F310006A1C02EA78
:10699C00090204EB8202000405EA0903033340EA0E
:1069AC001840D06014F8232068F3C50204F82320A3
:1069BC0034F8232066F3891224F8232054F823207A
:1069CC0067F39F2244F8232002F0F80242F0010200
:1069DC0004F8232094F820341BB1FFF7A9FE0028FB
:1069EC00FBD103B0BDE8F08F09EA020204EB82028E
:1069FC005AF82630D3600136BEE700BF743400204D
:106A0C009038002000231A46FFF7A4BF07B50123D6
:106A1C00019201AAFFF79EFF03B05DF804FB07B5D6
:106A2C00CDE9002302236A46FFF794FF03B05DF81B
:106A3C0004FB1FB5CDE90123069B039301AA032395
:106A4C00FFF788FF05B05DF804FB1FB5CDE9002307
:106A5C00069B0293079B03936A460423FFF77AFF76
:106A6C0005B05DF804FB00002DE9F34780462C4C83
:106A7C00D01C8A46174601A900228008A568FFF79A
:106A8C0061FDC8B3DDF80490A66809F1020001901D
:106A9C0001362840361AB6000330B74204EB8000AA
:106AAC0034D83A46514609F092F900211D4801F0BC
:106ABC0083FC80F3100009F101032B4004EB8303EA
:106ACC004FEA184242EA0042DA6005EA090303334E
:106ADC0004EB830214F8231068F3C50104F82310A7
:106AEC00518867F38F11518034F8232002F038025B
:106AFC0042F0020224F8232094F820341BB1FFF753
:106B0C0017FE0028FBD102B0BDE8F0873246514693
:106B1C0009F05DF9BA1B0AEB060104F10C00C2E79F
:106B2C00743400209038002030B50F49D1F810246F
:106B3C00002314463CB9C468237152B9C1F810043F
:106B4C002260184630BDE46825799D4206D0246841
:106B5C00F0E7D268116821601060F2E701330A2B6C
:106B6C00E7D14FF0FF33ECE774340020094A38B515
:106B7C000123D2F8104482F820341D4604B938BDE4
:106B8C00E3685D71236820465B689847E3681C687E
:106B9C00F4E700BF74340020037A052B10B50C46C3
:106BAC000FD0437A23B1084A0849204601F0C4FCAF
:106BBC000749204601F0C0FC2046BDE8104001F01A
:106BCC00B0BC002AF8D0F3E7DB010300231C030060
:106BDC00FD010300C38873B504460D4633B1144A56
:106BEC0000921449144A284601F0A6FC217A052982
:106BFC001CD0637A4BB1A088FFF77AFD0F4B10497C
:106C0C0053F82020284601F097FC227A0D4BA088DF
:106C1C0053F822600021FFF74FFD0B490346324623
:106C2C00284602B0BDE8704001F086BC02B070BDD1
:106C3C00DB010300E8010300E0010300A8010300ED
:106C4C00231C03000C020300000203002DE9F04397
:106C5C0085B01F460C9D002306460C46904695F8C1
:106C6C000C902B7329463846FFF7B4FFB8F1060F8A
:106C7C0009D8DFE808F00412181F28334000314609
:106C8C00284601F059FC002229463846FFF784FFBC
:106C9C0085F80C9005B0BDE8F08322683146284693
:106CAC0001F04AFCEFE7D4E900233146284601F015
:106CBC0043FCE8E7A36800933146D4E90023284657
:106CCC0001F03AFCDFE7E3680193A36800933146D7
:106CDC00D4E90023284601F02FFCD4E72369029362
:106CEC00E3680193A36800933146D4E90023284656
:106CFC0001F022FCC7E76369039323690293E368FD
:106D0C000193A36800933146D4E90023284601F08F
:106D1C0013FCB8E708292DE9F84F80460E461746B4
:106D2C001C463AD8002593F80C901D731946104652
:106D3C00FFF750FFDFF884A0DFF884B0AE422ED905
:106D4C0018F805205946204601F0F6FB0135082DB0
:106D5C00F4D11849DFF86CB0204601F0EDFB4FF090
:106D6C00000A564520D918F80A507E2D03D828461B
:106D7C0008F0A2FF00B92E252A465946204601F0FC
:106D8C00DBFB0AF1010ABAF1080FEAD10122214614
:106D9C003846FFF701FF84F80C90BDE8F88F514698
:106DAC00204601F0C9FBD1E70349204601F0C4FBA2
:106DBC00E7E700BFD6010300D4010300D2010300B2
:106DCC00CC010300D80103001FB50021039001AAD8
:106DDC0044F20100CDE9011100F004F805B05DF8B2
:106DEC0004FB000010B572B6FFF7C0FEFFF7A0FC65
:106DFC000028FBD1104B114C1149E41AE40824046F
:106E0C0044F00100FFF7FEFD0E4B1B68DB0700D5BD
:106E1C0000BE0D4944F00200FFF7F4FDBFF34F8FA5
:106E2C000A490B4BCA6802F4E0621343CB60BFF310
:106E3C004F8F00BFFDE700BF1000030050000300A0
:106E4C006B020300F0ED00E07702030000ED00E0C0
:106E5C000400FA05094A537891780133DBB2994260
:106E6C0008BF0023117899421FBF03705078182374
:106E7C0003FB002014BF0430002070473039002081
:106E8C0073B5054600240DF107000E468DF807403A
:106E9C0000F08AFA0DF10600FFF7DCFF90B10670E6
:106EAC00094B9DF8062045605A709DF8070000F0CC
:106EBC009FFA24B9054B4FF48012C3F800212046E9
:106ECC0002B070BD0424F0E73039002000E100E08E
:106EDC00024B4FF43C6043F001031847900203004F
:106EEC0038B50C4B0C4C4FF40032C3F88020012504
:106EFC004FF48033C4F84833C4F808336560FFF7A7
:106F0C00E7FF064BA56000241C60FFF7E1FF044B74
:106F1C001C7038BD00E100E0001001404C3A00202C
:106F2C003D3A0020F8B51F4B1F491B680025C1F8DE
:106F3C004051C1F84451C1F84851C1F84C51C1F805
:106F4C000051C1F804514BB3D1F8044517490968F5
:106F5C00641A24F07F442F461A68A24209D8A41A56
:106F6C0015441A7CDE691AB11F74D3E905209047C9
:106F7C00AEB90F4A0F4B11781B788B4205D10133F8
:106F8C00DBB2022B08BF0023137012780A4B43F8B4
:106F9C0022500A4B4FF48012C3F80021F8BD33463F
:106FAC00DAE700BF503A0020001001404C3A0020B4
:106FBC00493A0020483A0020403A002000E100E025
:106FCC002DE9F04FA14AA24913780978A14D9942B5
:106FDC0085B03CD00133DBB2022B08BF0023137009
:106FEC009D4912789D4B0F6853F822003B1823F0F3
:106FFC007F4300220B602B6816461446944613B947
:10700C0042B12B6006E0196881420ED902B12B60A7
:10701C00091A196001272B68DFF848A201934FF079
:10702C000008BEB9DFF844B266E0401A0C44D968D7
:10703C00C3F800C0D3F81CE031B13A1922F07F42FA
:10704C00C3E90121DE611E4601227346D7E7002603
:10705C003746E0E73446F6697F4A63681268DFF822
:10706C0010C2A068991A21F07F41614500F2A680F8
:10707C0001442160012222742A680023C4E90133EF
:10708C00E361002A40F0A3802C60CAE75A1C9BF8ED
:10709C000210D2B291428BF8002004BF00228BF870
:1070AC000020182202FB03B31A799C68022A1CD018
:1070BC00032A12D0012A1FD1207CE8B9D3E903128C
:1070CC00A2605A69E2609A69654BA2611B78002B39
:1070DC000CBF0B4603466360BEE700222B681146CB
:1070EC00002B67D142B12B6006E029680A4689461D
:1070FC00002A5AD1002323749BF800309BF80120FE
:10710C009A42C3D12B68B8F1000F04D1019A9A426C
:10711C0001D1002F43D0002B73D0D3F800A0514DD8
:10712C004D4BD5F804751C68DFF848813E1B98F868
:10713C00003026F07F4603369BB94FF48033C5F8F8
:10714C004433C5F80433484B4FF400324FF0010977
:10715C00C3F880211A60C5F80090FFF7B9FE88F8D3
:10716C000090B2452CBF5444A41924F07F44C5F8B8
:10717C004045D5F80435DB1B23F07F43E41B033378
:10718C0024F07F44A3420AD9D5F80435C5F840351C
:10719C00FFF79EFE344B4FF40032C3F80021304B06
:1071AC0000221A7005B0BDE8F08F94422CD09146A5
:1071BC00D2699DE719740122DB6991E7D31A23F098
:1071CC007F43834234BFC31A0023236052E72168F4
:1071DC001368994213D8591A1160E26154E7091ADD
:1071EC00D8691A4638B1034618688842F7D3401A52
:1071FC001860184613462160E061DC6111E7134604
:10720C00F2E7FFF76DFECAE74C4511D1CB692B6055
:10721C0073B9DFF844E00120CDE90212CAF8080086
:10722C00CEF800300E4B1870FFF752FEDDE902125B
:10723C001368D269C9F81C2012B11068034413609A
:10724C002B68994218BF4FF0010853E7483A0020C9
:10725C00493A0020503A00204C3A0020403A002095
:10726C003C3A00200010014000E100E030390020E1
:10727C00FEFF7F003D3A002008B5FFF731FE104BB2
:10728C0000200B2218809A700E4B18600E4B187051
:10729C000E4B18700E4B4FF48012C021C3F8802196
:1072AC0083F814131A6002F18042A2F56F22C2F81F
:1072BC00080583F81113074BD2F804251A6008BD92
:1072CC0030390020503A0020483A0020493A00203A
:1072DC0000E100E04C3A0020074B9B784BB132B1F7
:1072EC0028B10368187C20B959745A61704707207B
:1072FC0070470820704700BF303900202DE9F74354
:10730C001E4FBB7805460E469046A3B398B304298E
:10731C002FD943697BB3437C0024012B0DF107006B
:10732C000CBF8946A1468DF8074000F03DF80DF1E1
:10733C000600FFF78FFDD0B101230370104B4560A1
:10734C00D3F80435C0E90498C0E902369DF806303C
:10735C007B709DF8070000F04BF824B9094B4FF4F3
:10736C008012C3F80021204603B0BDE8F08304244A
:10737C00EFE70724F7E70824F5E700BF30390020D2
:10738C000010014000E100E0064A92783AB130B1B9
:10739C00426922B1002202740221FFF771BD08205C
:1073AC00704700BF3039002070B5EFF3108672B60D
:1073BC000C4A946801239CB993600B4B0B4DD3F88A
:1073CC00801029401160C3F88050D3F884105160AC
:1073DC004FF0FF32C3F88420047006B962B670BD5A
:1073EC000370FAE7543A002000E100E0FC06FFBD10
:1073FC00084B9A6810B55AB150B9EFF3108172B6B8
:10740C00054A1C6814605C685460986001B962B6E7
:10741C0010BD00BF543A002000E100E070B5064DED
:10742C000646002455F8043B0BB13046984701340E
:10743C00042CF7D170BD00BF6C3A0020033080B231
:10744C0040F2FD33984230B51FD8124B1A783AB936
:10745C001C895D892C440444A4B2B4F5806F0AD312
:10746C001A7DA2B99A8BDC8B2244024492B2B2F5FB
:10747C00806F0CD201220A801446142202FB0433C2
:10748C005A8910445881002030BD0920FCE70720A0
:10749C00FAE700BFA03A00200B4A0C4B518814208D
:1074AC0000FB0131CB6833B904204968107001220C
:1074BC00074801F0BDBA05230649137002238B80DF
:1074CC00012200230968F3E7843A0020A03A002047
:1074DC00602D0020683B002007B500230549009370
:1074EC00054A09680548082301F00CFA03B05DF859
:1074FC0004FB00BF683B0020A4020300602D0020A9
:10750C0007B50023009301460823034A034801F002
:10751C00F9F903B05DF804FB9C020300602D002018
:10752C0013B500230C46009301460423074A084870
:10753C0001F0E8F938B9074B142202FB043401239B
:10754C00237402B010BD0E20FBE700BF98020300AD
:10755C00602D0020A03A002037B50A480A4B42683B
:10756C009C88196853880325033305709BB200204F
:10757C0000909B0001EB8401044801F0C3F903B0B7
:10758C0030BD00BF843A0020683B0020602D0020F5
:10759C0010B50146044800F043FE1C2204460021AD
:1075AC0008F03EFC204610BD543B002068B1026838
:1075BC00084B9A4209D14068074B984207D00133D7
:1075CC0098420CBF01200320704703207047002015
:1075DC00704700BFDEC0ADDEFE011EF143880333F1
:1075EC0000EB8303994209D382884FF6FF739A42CA
:1075FC0006D00088B0FA80F040097047022070472E
:10760C00012070472DE9F8430223DFF860800B80DE
:10761C000D46174600F5805600F108044FF001099D
:10762C00B4420FD2236801330CD031462046FFF709
:10763C00D5FF48B10FB187F8009002280BD14FF459
:10764C0080632B80BDE8F883A368D8F800209342B0
:10765C0001D9C8F800302B886288033313442B807F
:10766C006388033304EB8304DAE700BF983A002005
:10767C00154A142303FB002070B50B6844680D46B3
:10768C0004F58056ABB15C88033403EB8404B4423C
:10769C000DD2236801330AD031462046FFF79EFFF6
:1076AC0001280BD010F0FF0F05D00228EFD10020DD
:1076BC0003E00834EBE72C60012070BD63880333D2
:1076CC0004EB8304E3E700BFA03A0020436873B5E2
:1076DC0004460D4663B3234AD1688B4228D3126902
:1076EC00934225D813F0030022D11F4A2189128915
:1076FC0091421DD121689A68914219D11B4A516857
:10770C008B4203D901F580518B420DD39269934280
:10771C000CD902F58052934208D201232B80B0FA87
:10772C0080F0400902B070BD0346F7E70A20F6E787
:10773C0000232B801E46019601A92888FFF798FF8D
:10774C0030B92B8801339BB2012B2B80F3D9E9E79D
:10775C00019B226899689142EED16360024B1B89B0
:10776C002381DFE7602D0020843A0020A03A00201E
:10777C002DE9F8431C461C4B1B7806460F46154654
:10778C006BB372B36CB3DFF868804FF01409A38845
:10779C00012B01D90A2020E009FB03F318F8033070
:1077AC002BB92146A088FFF763FF20B92060A3887E
:1077BC000133A380EBE723681EB19988328891428C
:1077CC00EFD11FB119883A889142EAD19A68C5E97C
:1077DC000023064B1B892B810020BDE8F883022077
:1077EC00FBE70520F9E700BF7C3A0020843A002033
:1077FC00A03A002008B5074B191D5888FFF738FF31
:10780C0018B1BDE80840FFF7A7BEBDE80840FFF778
:10781C0043BE00BF843A00202DE9F04FA04FDFF8A3
:10782C00A49289B00646B8463B6823B949469D48A0
:10783C0000F030FD3860D8F8005029784B1E052B2D
:10784C0000F2FA80DFE813F006005E005E00EE0046
:10785C00EE005C0126B1944B00225A600124ECE04E
:10786C002B79032B1DD8DFE803F015022A358F493D
:10787C000B78022B084619D00B7D022B4FF001031D
:10788C0016D114225343C2180020C8545068FFF775
:10789C0037FE03E001232B71FFF71EFE002800F0DA
:1078AC00BC80814B00225A600E24C6E00023E8E71E
:1078BC007D4A13700023536041F61D54BDE07C4992
:1078CC007C48002302222B718A800122096801F076
:1078DC00AFF8E3E7764C00262E712068734DFFF766
:1078EC000FFE754BD4F800C05A8814235343EA1882
:1078FC00EE5451682160A188C2F804C011810222A3
:10790C00A280CBE7B5F814A0AA7DDFF8A0B1AEB188
:10791C00022AEB8806D9142101FB0AB1DA1C08896A
:10792C0002440A81142202FB0ABAC3F57F43BAF857
:10793C000A20FD331344AAF80A308FE7142303FB03
:10794C000AB318895C6804EB8004062A68D8DFE85F
:10795C0002F0274D35431D59040041F61D54AA7DF4
:10796C00EB88022A06D9142101FB0AB1DA1C08891A
:10797C0002440A81142202FB0ABAC3F57F43BAF807
:10798C000A20FD331344AAF80A3056E04B484C4900
:10799C0000234360AB690360FFF798FE002871D0A9
:1079AC000223AB75002300930423EA1821464148B7
:1079BC0000F0A8FF002830D00E24D0E72B69002B54
:1079CC0014BF03230123AB750023009305F10C02B4
:1079DC00042304F10801EAE70123AB750022EB88CC
:1079EC0000929B002A6904F10C01E0E703290CBF0B
:1079FC0005230623AB7500230093042305F108022D
:107A0C00E118D4E70623AB752D4B19882B4B58681E
:107A1C00FFF786FD04460028A1D109B0BDE8F08F20
:107A2C000F249CE7002E7FF419AF2B79012B4BD040
:107A3C00E3B1022B3FF440AF0F241422002103A822
:107A4C0008F0EEF941F61D539C4208BF0024D8F80B
:107A5C00003004941A78023A042A00F20581DFE817
:107A6C0012F0E600F20015011D01240102232B7116
:107A7C000DF10A01EB68039303A8CDE90466FFF747
:107A8C0025FE08B90A24D8E70498BDF80A108388A3
:107A9C00EB8003882B81FFF743FD044627E000BFF2
:107AAC009C3A0020543B00207C3A0020A03A002055
:107ABC00683B0020602D0020843A0020603A0020B2
:107ACC00743B0020943A0020DFF8FCA103AA534633
:107ADC003146A81DFFF74CFE044658B9BAF80410FD
:107AEC000498FFF71DFD04460A2C3FF4E5AE002C6C
:107AFC00A3D192E708223146504608F091F9F3E7FA
:107B0C00002E7FF4ABAE6B4B1A7BAAB11E731A78A6
:107B1C00013A062A90D801A151F822F0CF7B02003D
:107B2C00F57B0200137C0200197C0200457A0200EE
:107B3C001F7C0200317C02001A78072AE7D801A1C9
:107B4C0051F822F0717B02001B7B02001B7B0200B0
:107B5C00977B0200AB7B0200CB7B0200CB7B02004D
:107B6C00937B02001A89544901321A8100225A80EF
:107B7C001A730A78B2FA82F252099A720A7DB2FA30
:107B8C0082F25209DA72012207E04C4958688A885D
:107B9C004088033202448A8002221A70B7E7464CAE
:107BAC005A884649142505FB0242086854685060FF
:107BBC008888108102228A800C600622EDE7072259
:107BCC00EBE79A7A32B9DA7A8AB900221A705A80BB
:107BDC005A6071E6384900229A72CA68002AF2D1BA
:107BEC00097C0029EFD05A80FFF704FE55E70022EC
:107BFC00DA72314A116A0029E7D192F82420002A5E
:107C0C00E3D00122EFE7FFF7A7FC46E7FFF744FCC0
:107C1C0043E7294A5B88142101FB03235868FFF7CB
:107C2C006FFC3AE700225A60FFF756FC35E7012259
:107C3C008DF80C201A89ADF818209A88DB68ADF8FD
:107C4C001A20059310E002228DF80C201A89ADF849
:107C5C0018209A88ADF81A20DA689B7D05929A1F35
:107C6C00534253418DF81C3003A8FFF7D7FB002675
:107C7C0049461348C8F8006000F037FB0121114851
:107C8C0000F0E6FB00287FF4CFADC6E603228DF8AA
:107C9C000C20DA88ADF818201A89CFE70422DB888B
:107CAC008DF80C20ADF81830DEE705238DF80C307C
:107CBC00DAE700BF843A0020A03A0020683B00209D
:107CCC00543B0020643B0020783B00204068FFF7C9
:107CDC00A3BD000008B50121044800F0A3FB18B9AE
:107CEC00BDE80840FFF798BD08BD00BF643B00200D
:107CFC002DE9F3419846354B1B7806460D46002B73
:107D0C005BD000295BD009884FF6FF73994258D09D
:107D1C006B88002B55D06B689B0754D14AB92F89BF
:107D2C000DF102013846FFF789FB30B102B0BDE816
:107D3C00F08113885788ADF8023001A8FFF728FCB2
:107D4C00044658B9BDF80230214A142101FB032323
:107D5C0058890338C01B58810820E7E70023837536
:107D6C00BDF8023083826B68036180F800800121CA
:107D7C00184800F062FB2B882381B8F1030F6B8845
:107D8C00A38004BF0423A3754FF0000508BF33681C
:107D9C00E06008BFA361E780658101A90E4800F08F
:107DAC0069FA36B1E36833600C4B75601B89B572A8
:107DBC003381FFF78FFF0020B8E70220B6E70520DC
:107DCC00B4E70420B2E70320B0E700BF7C3A002000
:107DDC00A03A0020983A0020543B0020843A00201E
:107DEC0008B5084B1A68042A09D01968064A42F8E3
:107DFC0021000121184600F020FB002008BD0C20BA
:107E0C00FCE700BF703B00206C3A00202DE9F04FDE
:107E1C0014228BB000210DEB020008F001F8764A19
:107E2C00137803F0FF01CDE901123BB105A8FFF770
:107E3C00F5FA002738460BB0BDE8F08F029B181DF1
:107E4C0000F011FB0028F4D140F6F8734FF080528B
:107E5C001B685C1C08BF694B694C08BF1B68116927
:107E6C005269581C08BF02FB01F323610022A3F5E1
:107E7C0040536449E360204600F010FD039407462C
:107E8C000028D7D11C238C225F496048DFF88891E9
:107E9C00DFF8888100F08FF9BA463D464FF0030BAE
:107EAC003C46039BDE68564430463146FFF77EFB6A
:107EBC0001284DD042B2002A36D0032822D106F533
:107ECC0080520868013040F08A8004319142F8D128
:107EDC00D9F800203AB902220123C9F80060A9F8A8
:107EEC00042001930CE014226243022008EB0201EF
:107EFC0008F80200464A4E60548001340881A4B24E
:107F0C0045F001050AF5805ABAF5405FC9D1BBF1BD
:107F1C00010F98BF0025EDB2022D03D0062D35D0F0
:107F2C00002D3CD10B2785E71421614308EB0100A0
:107F3C0008F8012001F11002083146604244414426
:107F4C003046FFF75FFB45F002050134A4B2D9E7D8
:107F5C00019B63B11422624308EB0201022008F872
:107F6C0002000134D9F800204A600881A4B2002232
:107F7C002849C9F800603046FFF744FBB9F80420E3
:107F8C00022A0CBF042208221543BBE7029A0123E4
:107F9C00137005A800235360FFF740FA4AE704A8C2
:107FAC00FFF7F6FAC8B10123013D03700A2D09D879
:107FBC00DFE805F006080608070807080F110F0090
:107FCC000023037104A9114800F054F9FFF782FE55
:107FDC0030E70323F5E70223F3E708272AE70BF141
:107FEC00FF321FFA82FB1422624308EB02014E603F
:107FFC00032108F80210A8E77C3A002014100010A6
:10800C00602D002098040300C83A0020543B002047
:10801C00843A00206C3B0020683B0020A03A0020F2
:10802C0073B50D460446C8B1C1B10DF10601FFF799
:10803C004DFBA8B10B4BBDF806006668142202FB81
:10804C00003001210C3000F0F8F963682E600C331D
:10805C006B600123A372002002B070BD0520FBE70A
:10806C000A20F9E7A03A002013B50446A8B10DF197
:10807C000601FFF72BFB90B10B4ABDF8063014211B
:10808C0001FB0323DA6862B1A27A52B1DA680020EC
:10809C00013ADA60A07202B010BD0520FBE70A209D
:1080AC00F9E70620F7E700BFA03A002002230022E0
:1080BC00FFF71EBE18B103230022FFF719BE0520DF
:1080CC0070470000104B1B7813B50446ABB14FF64C
:1080DC00FF73984213D001A8FFF75AFA88B1052311
:1080EC00037001230371C48001A9084800F0C2F891
:1080FC00FFF7F0FD002002B010BD0220FBE70420CA
:10810C00F9E70820F7E700BF7C3A0020543B002039
:10811C000E4B1B7807B5A3B101A8FFF739FA90B144
:10812C000623037001A90A4800F0A4F8094B1A7839
:10813C000AB101221A73FFF7CDFD002003B05DF8E0
:10814C0004FB0220FAE70820F8E700BF7C3A002085
:10815C00543B0020843A002007B5ADF80600ADF87A
:10816C0004100DF1060001A9FFF702FB03B05DF846
:10817C0004FB07B51346ADF806000A4600200DF1C6
:10818C000601FFF7F5FA03B05DF804FB07B51346DB
:10819C00ADF806000A460DF106000021FFF7E8FADB
:1081AC0003B05DF804FB20B119B103680B6000202B
:1081BC0070470520704710B561B1B2FBF3F403FBB7
:1081CC001424A4B244B9C0E9001484608281C38130
:1081DC00204610BD0E20FCE70920FAE782B050E8DB
:1081EC00022FC188B2EB324F4FF0000317BF92B28F
:1081FC0041EA014142EA014104E04268B2EB324FEC
:10820C0008BF012340E80212002AE8D18DF807309C
:10821C009DF80730002B0CBF1120002002B07047D6
:10822C0037B550E8013F9DB2C48925448489A542E5
:10823C0028BF2D1B0489A54202BFBFF32F8F00223C
:10824C0007E0C5EA030540E80154002CE9D14FF0E2
:10825C0001028DF803200193019B9DF803200B6014
:10826C0002F0FF0322B10B880068184403B030BD44
:10827C001846FBE70A884B889A4209D150E8012F2F
:10828C00C2EA024240E80123002BF7D101207047DB
:10829C000020704737B550E8023F1FFAA3F5C48899
:1082AC00A54202BFBFF32F8F00220DE0C4892544E5
:1082BC008489A54228BF2D1BC3EA054540E802541A
:1082CC00002CE8D14FF001028DF803200193019BA3
:1082DC009DF803200B6002F0FF0322B14B8800686D
:1082EC00184403B030BD1846FBE70A884B889A4205
:1082FC0009D150E8022FC2EA224240E80223002BA7
:10830C00F7D1012070470020704701F01F024B0984
:10831C000121914000EB830000F063B84B0910B5CC
:10832C0001F01F040121A14000EB830000F04EF886
:10833C00E04000F0010010BD01F01F0301229A4043
:10834C004B0900EB8300D14300F061B84B0901F0FD
:10835C001F0150F82300C84000F0010070472DE9C0
:10836C00F0474E1E760980460F460136002558F818
:10837C00254008EB8509E44394FAA4F4B4FA84F498
:10838C004FEA451A202C06D10135AE42EFD83C46B7
:10839C002046BDE8F0875444A742F5D92146404613
:1083AC00FFF7BCFF0028F3D0D9F80040E44394FA5F
:1083BC00A4F4B4FA84F4E5E750E8002F0B4640E847
:1083CC00003C9CF0000FF7D11046704750E8002F8E
:1083DC0042EA010340E8003C9CF0000FF6D1104645
:1083EC00704750E8003F43EA010240E8002C9CF043
:1083FC00000FF6D11046704750E8002F02EA010337
:10840C0040E8003C9CF0000FF6D11046704750E855
:10841C00003F03EA010240E8002C9CF0000FF6D16B
:10842C001046704750E8002F02EB010340E8003C77
:10843C009CF0000FF6D11046704750E8003F03EB5C
:10844C00010240E8002C9CF0000FF6D1104670475A
:10845C0050E8003FA3EB010240E8002C9CF0000F19
:10846C00F6D1104670470121FFF7B0BF0121FFF78D
:10847C00B8BF0021FFF7C0BF10B590B1D0E9012300
:10848C0001689B1ADBB20A60013BDBB2FF2B02686E
:10849C0002D10020107110BD11684C1C14600B70BF
:1084AC00F2E70E20F7E737B5054600240DF107007B
:1084BC008DF80740FEF778FF2A686B6811689942BF
:1084CC000ED9481E106011F8014CEB68298A01FB8B
:1084DC000434AB6811791B1ADBB2994238BF1371A3
:1084EC009DF80700FEF784FF204603B030BD37B57A
:1084FC00054600230DF107000C468DF80730FEF7FA
:10850C0053FF2A681368591C1160E968641A298A98
:10851C00B4FBF1F41C709DF80700FEF769FF03B083
:10852C0030BD826810B504462AB143690168006900
:10853C0098470023A36010BD0EB403B5039921B175
:10854C0004AB01AA019300F06DF802B05DF804EBE6
:10855C0003B07047826830B40468551C8560A15420
:10856C00D0E901329A4202D330BCFFF7DABF30BCFB
:10857C00704700002DE9F84F9946DDE90A4317468C
:10858C00824688460A460126BA420FD24E4538BF6B
:10859C004E4613F0010B01D164B900240125B9F149
:1085AC00010F1AD909F1FF397D43F8E7B2FBF7F255
:1085BC000136E9E79B070ED5B9F1000F0CBF30254A
:1085CC002025A642EAD2013C29465046FFF7C2FFBD
:1085DC00002CF6D1E1E72025F3E7B8FBF5F39F4239
:1085EC00E2D9DFF83C90B8FBF5F3504619F80310CC
:1085FC0005FB1388FFF7AEFFB5FBF7F3BD4207D2BF
:10860C00BBF1000F02D00CB1A64203D3BDE8F88F2A
:10861C001D46E8E720215046013CFFF79BFFF2E79F
:10862C00AC0203002DE9F74F054617468846002992
:10863C0000F0308118F8011B49B92B7B002B00F09E
:10864C002981284603B0BDE8F04FFFF76ABF252902
:10865C0040F0C080002698F800302D2B424608F1DF
:10866C00010823D0302B24D02B2B25D000242A2BEF
:10867C0002F1010123D13B681A1D1B683A601C44AE
:10868C000A4613782E2B26D101324FF000091046E2
:10869C0010F8011BA1F1300CBCF1090F1DD80A23F5
:1086AC0003FB0913A3F130090246F0E746F001067B
:1086BC00D1E746F00206CEE746F00406CBE711F808
:1086CC00013CA3F130000928DBD80A2202FB043458
:1086DC00303C0A46CBE74FF0000912F8011B01F0C1
:1086EC00FB0068289046F8D069290ED04AD8582942
:1086FC0064D006D825296DD098F80030002B99D17C
:10870C009BE7632962D06429F6D13A68D2F800A0BD
:10871C00111D8AEAEA723960A2EBEA724FF0010B82
:10872C00092A5BDCCB4538BFCB462CB1BAF1000F24
:10873C0001DB720700D5013CB30702D5B9F1000F7C
:10874C0004D0F00702D4002C4ED10024BAF1000F53
:10875C0052DACAF1000A2D212846FFF7FBFE06F07B
:10876C000302022A05D1B9F1000F02D1002C47D126
:10877C000024CDE900464B460A2251462846FFF715
:10878C00F9FEB9E773294CD014D87029B4D13B68E1
:10879C001A1D3A60302128461C68FFF7DBFE782151
:1087AC002846FFF7D7FE00220823CDE900322146E8
:1087BC001022E3E775292BD078299DD139680A1D41
:1087CC003A60CDE900464B46102228E03B681A1D62
:1087DC0019783A602846FFF7BDFE8DE70A230BF1A6
:1087EC00010BB2FBF3F29BE7A345AFD22021284645
:1087FC00013CFFF7AFFEA6E77107B0D52B21ABE725
:10880C00A345B6D230212846013CFFF7A3FEADE7C5
:10881C003968CDE900460A1D3A604B460A220968C0
:10882C00ACE73B681A1D3A6016F00106D3F800A0BD
:10883C0020D1BAF1000F03D0504607F06DFB06466D
:10884C00B44200D9C4B90AF1FF3A1EE028460136F9
:10885C00FFF780FE1AF806100029F7D1A642BFF4E4
:10886C004BAF002C3FF448AF20212846013CFFF7CA
:10887C0071FEF3E70026EDE720212846013CFFF7C7
:10888C0069FEDDE72846FFF765FE1AF8011F00298F
:10889C00F8D131E703B0BDE8F08F000007B50B4607
:1088AC0088B9124B1248134AC01A0E23C008009301
:1088BC00114B0004114940F00100FEF7BAF80E20EC
:1088CC0003B05DF804FB4BB9084B09480C4AC01ABD
:1088DC00C0080E2300930004074BEBE703601B68F2
:1088EC00114603B05DF804EB184700BF10000300FD
:1088FC008800030069030300BC0203006E0303003D
:10890C00E50303002DE9F34188B93D4B3D483E4A50
:10891C00C01AC0080E243D4B009400043C4940F0A2
:10892C000100FEF786F8204602B0BDE8F0814AB996
:10893C00334B3448374AC01AC0080E240004009444
:10894C00324BEBE7D0F800C0BCF1000F09D12C4B37
:10895C002C48314AC01AC0080824000400942B4B40
:10896C00DCE74BB9264B27482C4AC01AC00809240F
:10897C0000040094254BD1E74768D7F80480B3FB7B
:10898C00F8F708FB17374FB11D4B1E48244AC01A85
:10899C00C0080924000400941C4BBFE78F0709D0C2
:1089AC00174B18481F4AC01AC00810240004009422
:1089BC00164BB3E712F0030F09D0114B11481A4AAA
:1089CC00C01AC008102400040094104BA6E7C76816
:1089DC00B9420BD34C1E05691C44AC4206D8DCF8DA
:1089EC000C40A44602B0BDE8F0416047044B05487A
:1089FC000E4AC01AC008102400040094034B8DE7E3
:108A0C00100003008800030069030300CE0203007A
:108A1C006E030300EB030300DF0303009E0303005C
:108A2C00F10303001B04030033040300560403008A
:108A3C00F7B580B92A4B2B482B4AC01AC0080E2414
:108A4C002A4B009400042A4940F00100FDF7F1FF85
:108A5C00204603B0F0BDD0F800C0BCF1000F09D126
:108A6C001F4B2048234AC01AC00808240004009455
:108A7C001E4BE8E74AB91A4B1A481F4AC01AC008DD
:108A8C00092400040094194BDDE74768D7F800E08F
:108A9C000EF1FF370F4209D0114B1248174AC01A7A
:108AAC00C008102400040094104BCCE7C768B942EE
:108ABC000CD34C1E05690EFB0244AC4206D8DCF804
:108ACC001040A44603B0BDE8F0406047044B054895
:108ADC000B4AC01AC008102400040094034BB2E7E0
:108AEC00100003008800030069030300E102030087
:108AFC006E030300DF0303009E030300F402030074
:108B0C001A03030070B508B10368ABB90C4D0D4CDA
:108B1C000026641B1423B4FBF3F4B44201D10020EF
:108B2C0009E02B6813B901361435F6E7DB692846E2
:108B3C0098470028F7D070BDDB69BDE87040184736
:108B4C00602D0020742D002029DF704728DF70472E
:108B5C0070B503689D6886B004460E466DB114224C
:108B6C000021684607F05CF9A36805932379019608
:108B7C002BB1012B0DD06846A84706B070BD012360
:108B8C008DF8003023690293E368039363690493BF
:108B9C00F1E702238DF80030E3681B030293F5E73D
:108BAC000846704700207047024B187A003018BFF7
:108BBC00012070471C3C0020034B187A0122B0FAAC
:108BCC0080F05A74400970471C3C002008B51046D0
:108BDC001A4607F0FCF8002008BD000008B5142266
:108BEC000021044807F01CF90348FFF7F7FA0020AE
:108BFC0008BD00BF1C3C00200C3C002010B5094CEB
:108C0C00094B43602046FFF72EFC40B906F096FE58
:108C1C001C2320748C2205490548FFF7CCFA002050
:108C2C0010BD00BF1C3C00208C040300803B0020C6
:108C3C000C3C002070B5244C244E237A25463BB9BD
:108C4C0023492448FFF726FB306008B9606070BDEB
:108C5C00346802232B72237973B1012B24D0204664
:108C6C000321FFF775FF00232B726B60184919481D
:108C7C00BDE87040FFF739BBD4E90523D21AB2F531
:108C8C00805F28BF4FF48052D4E903109208012A68
:108C9C0038BF012219441844FFF756FF50B1112870
:108CAC00DDD101232B72D2E7D4E903031844FFF77B
:108CBC004DFFF3E72B7C002BC9D10146BDE870407A
:108CCC00022000F009B800BF1C3C0020343C0020FE
:108CDC00303C00200C3C002038B5831E012B45D8BD
:108CEC00234C237A002B41D0022B09D1032830D0FE
:108CFC00204B1B680022E2601A793AB1012A22D07B
:108D0C00637C7BBBBDE83840FFF794BFD3E9051209
:108D1C008D1AB5F5805F94BF521902F580529A6195
:108D2C009142EDD102284FF0000308BF194623727F
:108D3C00104B18BF0D211868FFF70AFF0E490F489A
:108D4C00FFF7D3FADCE71A6901321A615B699A42C0
:108D5C00E7E7E3680133082B01D8E360D0E7002391
:108D6C00E360DFE7BDE8384006F0D8BD38BD00BF92
:108D7C001C3C0020343C0020303C00200C3C0020EB
:108D8C0000F0FD03012B08D1044B00225A74421E43
:108D9C00504250411874FFF74DBF70471C3C0020E7
:108DAC0010B5064C201DFFF75EFB28B9637C1BB980
:108DBC00BDE81040FFF73EBF10BD00BF1C3C0020BB
:108DCC002DE9F34180460D460F4801A916461F4672
:108DDC00FFF726FA0446A8B11C22002107F020F860
:108DEC002D0B0123237101A9C4F80080A760E56055
:108DFC0066610548FFF73EFAFFF7D2FF002002B08C
:108E0C00BDE8F0810420FAE70C3C00202DE9F74383
:108E1C0081468846104801A917461E46FFF700FAFE
:108E2C000446B0B11C22002106F0FAFF00250A9B73
:108E3C00A36001A92571C4F80090C4E903786661A8
:108E4C000548FFF717FAFFF7ABFF284603B0BDE85C
:108E5C00F0830420FAE700BF0C3C00202DE9F0471A
:108E6C00B0F806904479D2F800A09DF8208009FB58
:108E7C0004F4043C06460AEB0300A0420F4688BFEC
:108E8C00A4EB030A191DC2F800A0B1FBF9F509FB0C
:108E9C0015114DB9A9EB0104544528BF5446BAF13C
:108EAC00000F04D1BDE8F0873668013DF1E70431CD
:108EBC007B1970182246B8F1000F0ED001461846E7
:108ECC00AAEB040A06F083FFD145254436684C46CC
:108EDC004FF0000128BF5446E1E71946F0E7FFF7D1
:108EEC00CBBAF8B546790146721E0546002393426B
:108EFC002D6803D30024A64202D8F8BD0133F6E74F
:108F0C000F682846FFF7F3FA01343946F3E72DE9E9
:108F1C00F843068ACD1C0746FFF7C5FA043E3544D4
:108F2C000446B5FBF6F5F0B14FF48073EDB28380D7
:108F3C00C680013D076081464FF00008A84512D25B
:108F4C003846FFF7B0FA064648B1637901336371CE
:108F5C0008F10108C9F8000007608146EEE72046D9
:108F6C00FFF7BFFF34462046BDE8F88301210430EB
:108F7C00FFF763BA10B5012104460430FFF768FA15
:108F8C0010F0FF0F04D12046BDE81040FFF7A9BF39
:108F9C0010BD1FB503920022009203AAFFF75EFFDB
:108FAC0005B05DF804FB1FB503920122009203AAE1
:108FBC00FFF754FF05B05DF804FB0000064B10B53D
:108FCC0000241C70054B1C60BFF35F8F04490548DF
:108FDC0000F013F8204610BD403C0020443C00201B
:108FEC00B8040300383C0020836800225A609A6061
:108FFC00C3E90422DA601A6070470B684A68436060
:10900C00934208BF0023016008BF43607047436868
:10901C0043B10268916852680B449342436004BFA9
:10902C00002343607047000010B50D49A1F5947200
:10903C00914201D800200FE08B1ADB1003EBD373A5
:10904C005B1002EBC30452F83330834205D802D2D2
:10905C0004F10802ECE7606810BD2146E8E700BFA8
:10906C000806030008B5FFF7DFFF024B002808BF16
:10907C00184608BDCD040300BFF34F8F0549064BBE
:10908C00CA6802F4E0621343CB60BFF34F8F00BF9A
:10909C00FDE700BF00ED00E00400FA050C4B1B7867
:1090AC00062B10D10B4B1B681A070CD10A4B1868F6
:1090BC0000F0F003302B08D000F0E000A0F14003EA
:1090CC00584258417047002070470120704700BF3C
:1090DC00E00F00F0E40F00F0E80F00F0094B1B78F4
:1090EC00062B0CD1084B1B681A0708D1074B1868C4
:1090FC0000F0F000A0F130035842584170470020B6
:10910C00704700BFE00F00F0E40F00F0E80F00F034
:10911C0008B5FFF7C3FF28B1894B8A4A1B68C3F314
:10912C0004231360FFF7DAFF10B1874B874A1A60EC
:10913C00FFF7B4FF28B1864B864A1B68C3F3423352
:10914C001360FFF7CBFF20B1834AD36823F0807301
:10915C00D360FFF7A3FF40B14FF080430022C3F868
:10916C000C21C3F81021C3F83825FFF7B7FF10B155
:10917C007A4B03221A60FFF7B1FF40B1784B0522FE
:10918C001A6001229A6700229A603F225A60754B3E
:10919C001B78062B50D1744B1B6818074CD1734BA2
:1091AC001B6803F0F003502B46D14FF08052704BEC
:1091BC00D2F80414C3F82015D2F80814C3F82415F7
:1091CC00D2F80C14C3F82815D2F81014C3F82C15C7
:1091DC00D2F81414C3F83015D2F81814C3F8341597
:1091EC00D2F81C14C3F84015D2F82014C3F8441557
:1091FC00D2F82414C3F84815D2F82814C3F84C1527
:10920C00D2F82C14C3F85015D2F83014C3F85415F6
:10921C00D2F83414C3F86015D2F83814C3F86415B6
:10922C00D2F83C14C3F86815D2F84014C3F86C1586
:10923C00D2F84424C3F87025FFF730FF28B14D4B0A
:10924C004D4A1B6803F04F031360FFF727FF48B12B
:10925C004FF08043D3F80024D10744BF6FF00102D4
:10926C00C3F80024454B1B68062B08D1444B1B68E4
:10927C00062B01BF434A136843F480631360424AD0
:10928C00D2F8883043F47003C2F88830BFF34F8FA4
:10929C00BFF36F8F4FF01023D3F80C22D2071ED5DB
:1092AC003A4B0122C3F80425D3F80024002AFBD042
:1092BC004FF01022D2F80C3223F00103C2F80C321A
:1092CC00324B1A46D3F800140029FBD00021C3F806
:1092DC000415D2F80034002BFBD0FFF7CDFED3F8E9
:1092EC000022002A03DBD3F80432002B23DA274BAD
:1092FC000122C3F80425D3F80024002AFBD04FF038
:10930C0010221521C2F80012D3F80024002AFBD039
:10931C004FF010231522C3F804221C4B1A46D3F825
:10932C0000140029FBD00021C3F80415D2F8003436
:10933C00002BFBD0D1E7164B164A1A6008BD00BFB4
:10934C00240300104035014074C007400DF0ADBA45
:10935C00440200103C050040F0ED00E0A005004088
:10936C0010560040E00F00F0E40F00F0E80F00F0A2
:10937C0000C0004058020010E40E00403001001004
:10938C00340100103C17004000ED00E000E001400B
:10939C007C2D00200090D003044B1A5C01239340D9
:1093AC004FF0A042C2F80C35704700BFC209030051
:1093BC00044B1A5C012393404FF0A042C2F80835CD
:1093CC00704700BFC209030038B5074C051E04F1F5
:1093DC00080318BF1C4623682BB11A6822605B680F
:1093EC0028469847F7E738BD503C002020B9054B7C
:1093FC0001225A70FFF7E8BF012802D1014A907090
:10940C00F8E77047483C002020B9034B01225A7002
:10941C00FFF7DABF704700BF483C002038B5124C4C
:10942C002378FBB911486360A3602361E36000F00B
:10943C006DF8054606F082FA08B900F08BF80123A6
:10944C0023702846FFF70EFE094C0A4B0A4A0B49BB
:10945C00E41AE4082404034644F00300FDF7DFFAA1
:10946C00284638BD8525ECE7483C0020F9930200DE
:10947C007800030010000300C6090300D90903009B
:10948C0037B50B4C00230DF107008DF80730FDF7B5
:10949C008BFFE368013BE360E56815B900F07AF8EF
:1094AC00A5709DF80700FDF7A3FF03B030BD00BF0A
:1094BC00483C0020012813B509D018B103281CD052
:1094CC0002B010BD0F4B0122C3F88020F8E70E4C00
:1094DC0000230DF107008DF80730FDF765FF2378A9
:1094EC000BB9FFF79BFFE3689DF807000133E360BE
:1094FC000123A370FDF77CFFE2E700F02BF8FFF7E8
:10950C00BFFFDDE700E100E0483C002038B50C4B24
:10951C001D799DB9012218609A802846FFF7A2FD9B
:10952C00084C094B094A0A49E41AE4082404034686
:10953C0044F00300FDF773FA284638BD8525ECE7A7
:10954C005C3C00201000030010000300FD09030028
:10955C00D90903000B4B0C481A680C49D2075FBFA2
:10956C00C02283F8002301221A604FF080430122AD
:10957C00C3F81825064BC01AC008000440F00300BD
:10958C00FDF740BA00E100E0100003000D0A0300F3
:10959C0010000300044B01221A604FF08042D2F8F5
:1095AC001834DB03FBD470470C000040154B07B597
:1095BC001A687AB100221A601B680093009B4FF066
:1095CC0080430122C3F808230F4B587910B95A7104
:1095DC001B6898470D4B1A6882B100221A601B68F1
:1095EC000193019B4FF080430222C3F80823064BE2
:1095FC001B68012003B05DF804EB184703B05DF85D
:10960C0004FB00BF000100405C3C00200401004052
:10961C0000F1804000F5C040002382B00360036875
:10962C000193019B02B07047800000F1A040D0F87C
:10963C00003723F44033C0F80037D0F8003743EA42
:10964C000141C0F800177047054B4FF0FF32072857
:10965C0043F8202084BF1B1883F84820704700BFB4
:10966C00643C002010B5174C94F8583043BB04F1FF
:10967C0030032021FF22013911F0FF0103F8012BE7
:10968C00F9D1C8B2FFF7E0FF01310C29F9D104225E
:10969C0000210D4806F0C4FB0C4BC02283F80623B6
:1096AC0040221A604FF4BE70FFF7B2FF084B4FF028
:1096BC000042C3F80423012384F85830002010BD65
:1096CC000820FCE7643C0020B83C002000E100E0EE
:1096DC0000600040F0B5374B1C1894F93040002C5A
:1096EC001C4664DA8D78C5F34005002D0BBF0823AA
:1096FC0000230C260826B34201D10420F0BD54F8F7
:10970C00237001373FD1261844F8232086F83030D7
:10971C0015B9E21882F848008A78550713D4D60791
:10972C0033D5820002F1A042D2F8005725F0020591
:10973C00C2F80057204EC50800F007070122BA40B6
:10974C00775D3A4372558A780D7812F0020225D073
:10975C009B0003F1804303F5C0430202D3F81015BC
:10976C0021F4473121F44071C3F810152D04D3F8BE
:10977C00101502F4F85205F440352A430A43C3F895
:10978C0010250020BAE70133B5E74D7800F5E072FB
:10979C004FF0A046AD0046F82250CBE7083B2344DF
:1097AC0093F8501041EA851583F85050E9E70820EA
:1097BC00A4E700BF643C0020B83C002038B51F4C27
:1097CC00251895F93020072A17DD224492F8481005
:1097DC00890903290CD14FF0A043D3F81035C340AD
:1097EC0013F0010F08BF0221BDE83840FFF71CBF82
:1097FC00012914BF03210221F6E7D3B2072B1CD891
:10980C00930003F1804303F5C043D3F8100540F0F7
:10981C000100C3F8100502F14000800080B2FFF790
:10982C00F7FE51B195F9303054F823302BB10123A8
:10983C0003FA02F2024BC3F8042338BD643C002047
:10984C00006000402DE9F04F85B000245A4D019482
:10985C004FF48072012102F1804303F5C04390B2B2
:10986C001B68012B06D1D5F804330B4202D0FFF74D
:10987C00CFFE0C430432B2F5907F4FEA4101EAD19E
:10988C004E4B1B68012B0AD14FF4BE70FFF7C0FE84
:10989C004FF0A04344F00044D3F81035019314F07A
:1098AC00FF0F1AD0464F00250126344210D0AB00D2
:1098BC0003F1804303F5C043D3F81005D3F810151A
:1098CC0057F8253023B1C1F30141C0F30420984768
:1098DC000135082D4FEA4606E7D1002C64DA002248
:1098EC004FF0FF33CDE90223354D01274FF0000A2D
:1098FC00344E54464FF0A04816F9012B531C46D059
:10990C00D2B222F0C0094FEAD90104A8084402F0EF
:10991C00070310F804CC07FA03F31CEA030F36D044
:10992C0005EB090C92099CF930C055F82CB0BBF131
:10993C00000F0AD1032A2AD10DF1080E1EF801C01E
:10994C004CEA030C0EF801C001E0032AF4D009F52F
:10995C00E07110F80C0C58F821101842C1F30141B9
:10996C0005D0022913D1032A0BD1114604E0032997
:10997C000DD1032A05D102214846FFF755FE0134CB
:10998C00E4B2BBF1000F02D011464846D8470AF1A9
:10999C00010ABAF1040FAFD134B14FF0A043019AD0
:1099AC00D3F81035934202D105B0BDE8F08F019386
:1099BC00029B03939AE700BF006000407C6100406B
:1099CC00643C0020B43C0020014B1B68184700BFCE
:1099DC00C03C0020C17FFF29034607D0807F0122B5
:1099EC008A404FF0A04148B1C1F80C25184600221E
:1099FC005A771A72596850F8082B1047C1F8082585
:109A0C00F4E700004FF0402382B0D3F818314BB18B
:109A1C00054B064800221A601B680193019B02B09B
:109A2C00FFF7D8BF02B0704718410040EC3C002053
:109A3C00084BD3F8183182B04BB1074B07480022C2
:109A4C001A601B680193019B02B0FFF7C3BF02B001
:109A5C00704700BF0030004018310040C83C002067
:109A6C000023435082B043580193019B02B07047CE
:109A7C002DE9F047DFF8948004460F4691464FF4E9
:109A8C008036002500F5A07AD4F80433A90001F53E
:109A9C00A071334289B20DD05AF8253053B1C4F8B5
:109AAC0048632046C4F80863FFF7DAFF58F82730FC
:109ABC00E8B298470135A9454FEA4606E4D1D4F8F7
:109ACC000433DA070CD5D4F800314BB120464FF4EF
:109ADC008071FFF7C5FF0D4B042053F827309847D2
:109AEC00D4F804339B070ED5D4F804315BB120466F
:109AFC004FF48271FFF7B4FF044B052053F8273065
:109B0C00BDE8F0471847BDE8F08700BF103D0020C6
:109B1C00032200210148FFF7ABBF00BF00B000409B
:109B2C00042201210148FFF7A3BF00BF00400240FF
:109B3C000023435082B043580193019B02B07047FD
:109B4C002148D0F8103110B55BB14FF48871FFF794
:109B5C00EFFF1E4B5A79510703D51B680BB101203F
:109B6C0098471948D0F814315BB14FF48A71FFF75C
:109B7C00DFFF164B5A79120703D51B680BB1022075
:109B8C0098471148D0F81C315BB14FF48E71FFF738
:109B9C00CFFF0E4B587910F0100002D11B6803B1A7
:109BAC0098470948D0F8043163B14FF48271FFF73C
:109BBC00BFFF064B01221A711B681BB10320BDE8C5
:109BCC001040184710BD00BF00C00140183D0020D8
:109BDC00032813D8012A0BD1012908D100F10E0258
:109BEC00D2B200EB40000C4B1A54002070470022FC
:109BFC000129F6D04BB24BB1022901D00720704796
:109C0C00054B00EB400018444270EEE7024900EBB4
:109C1C00400008448270E8E7203D002008B501228E
:109C2C0002210020FFF7D4FF08B1072810D107222A
:109C3C0002210120FFF7CCFF08B1072808D1002131
:109C4C000A220846FFF7C4FF10B1072808BF0020FE
:109C5C0008BD00000388102B10B502D0112B1ED0AC
:109C6C0010BD1A4C2168B1B901220846FFF7B0FFAC
:109C7C0008B1072824D1072202210120FFF7A8FFF1
:109C8C0008B107281CD1042202210020FFF7A0FFF5
:109C9C0008B1072814D1236801332360E0E70B4A8D
:109CAC001368013B1360002BDAD1FFF7B7FF0028D4
:109CBC00D6D0074B1B68002BD2D0BDE810401847FC
:109CCC00034B1B68002BE6D09847E4E7303D00209F
:109CDC002C3D002075DF704776DF70477ADF7047C8
:109CEC007CDF70478FDF70477047FDF76DB8000061
:109CFC0008B50E4B014658884FF6FF72904207D0BC
:109D0C00D88990420FD0588B90420ED1022200E09D
:109D1C0000220C2000FB023003F044F928B1BDE80E
:109D2C000840FDF751B80122F3E708BDC03F002001
:109D3C0008B5044803F076FA18B1BDE80840FDF701
:109D4C0043B808BDE43F002013B50446808801F0F9
:109D5C0059FD80B2012802D02388262B36D12388C6
:109D6C00212B5FD005D8102B0CD0112B1ED002B09C
:109D7C0010BD3B2B01D0562BF9D11321A088FFF736
:109D8C00ABFF70E03A4B3B483B49C01AC00800049B
:109D9C0040F00300FCF736FE0220FFF709FB03201E
:109DAC00FFF7FAFAA088FFF7A3FFE0E7304B314842
:109DBC00A2883249C01AC008000440F00300237A7C
:109DCC00FCF72DFE0320FFF7F3FAD0E70228CED1E3
:109DDC001F2B43D020D8112B2CD01B2B30D0102B69
:109DEC00C5D1234B23482649C01AC008000440F0B3
:109DFC000300FCF707FEA088FFF77AFF0120FFF7AE
:109E0C00CBFA01F03BFD02284FF00000DBD0FFF74E
:109E1C00C3FAFFF78DFFAAE73B2BAED0562BACD085
:109E2C00212BA4D1002301A9A088ADF80430FFF7A1
:109E3C0059FF18E001F022FD002898D10120C2E75B
:109E4C00237A022B93D10A4B0A480E49C01AC00838
:109E5C00000440F00300FCF7D5FD88E704F108018D
:109E6C00A088FFF737FF002881D0FCF7ADFF7EE715
:109E7C001000030050000300460A03005B0A0300B5
:109E8C00940A0300A60A0300037837B55BB945684A
:109E9C006C46A91C204600F0FFFB95F9132094E8B2
:109EAC00030000F067FB03B030BD000008B580B1C3
:109EBC00032817D10C4B0D480D49C01AC0080004DB
:109ECC0040F00300FCF79EFD0220BDE80840FFF7C0
:109EDC0063BA0321074801F066F918B1BDE80840E0
:109EEC00FCF772BF08BD00BF100003005000030058
:109EFC00300B0300343D002010B50020FEF702FEAD
:109F0C00044668B9FFF714FF2046FFF745FA032112
:109F1C00044801F048F918B1BDE81040FCF754BFF3
:109F2C0010BD00BF343D002010B5044604F000FD08
:109F3C00204604F021FD204604F020FB23780C2B56
:109F4C0003D1BDE81040FFF7D7BF10BDF0B54FF4FB
:109F5C000041ADB00020FCF791FB08B1FCF734FFD9
:109F6C00FCF7C2FA924C934B9349E41AE40824048C
:109F7C0044F003042046FCF745FDFDF77DF908B1DC
:109F8C00FCF722FFFFF71AF808B1FCF71DFF05F0EC
:109F9C0057FC08B1FCF718FF002301A9012001931D
:109FAC0005F016FD08B1FCF70FFF01A805F0C2FD86
:109FBC0008B1FCF709FF1022002101A805F030FFC1
:109FCC007E4B7F4A7F48019301A903F0D3F808B177
:109FDC00FCF7FAFE7C4805F09FFF38B17A4A7948C5
:109FEC00002103F063F808B1FCF7EEFE774A7548E0
:109FFC00032103F05BF808B1FCF7E6FE00221F21F9
:10A00C00704803F097F808B1FCF7DEFE1123704896
:10A01C008DF8003005F080FF6D4982B26846FFF77D
:10A02C005FFE08B1FCF7D0FE0822002101A805F064
:10A03C00F7FE644B01A81A6B5B6B01920293FFF75E
:10A04C004DFE08B1FCF7C0FE0021624802F098FEFC
:10A05C0008B1FCF7B9FE1C22002101A805F0E0FEB6
:10A06C0000234FF42032CDE901324FF470220392D9
:10A07C0003228DF810204FF6FF72ADF812200693D4
:10A08C000122554B8DF8142001A8079301F0CCFA4E
:10A09C0008B1FCF799FE514801F0CAFD08B1FCF774
:10A0AC0093FE03F065FF08B1FCF78EFE052200213C
:10A0BC0001A805F0B5FE019B03F07C42484B13430D
:10A0CC0001939DF8083023F0030343F0030301A828
:10A0DC008DF8083003F0E6FF08B1FCF775FE414837
:10A0EC0003F0C8FF08B1FCF76FFE042200210DEB52
:10A0FC00020005F095FE11238DF8053001A941F2FF
:10A10C0011133948ADF8063000F088F808B1FCF7A7
:10A11C005BFEAC22002101A805F082FE02238DF823
:10A12C00043040F20163314AADF806300123ADF83A
:10A13C00143006928DF880304FF496720023CDE9DE
:10A14C00232301A92A4B2B482A9300F0ADFF08B119
:10A15C00FCF73AFE0121274800F0A3FF26492046D0
:10A16C00FCF750FCFFF7C8FEFFF77CFA08B1FCF7D0
:10A17C002BFE224D00F03CFA4FF4FA7645F0010527
:10A18C004FF47A40A847013EFAD11D491D4F204695
:10A19C00FCF738FC39462046FCF734FC4FF47A7651
:10A1AC004FF47A40A847013EFAD1FCF7C1FAF1E727
:10A1BC005000030010000300D70A03001C330020DA
:10A1CC00959E0200E43F0020D60A03002A330020AB
:10A1DC00F00A03009C3F0020F79C0200F59C020053
:10A1EC0031071003359F02008C3F0020802D00208A
:10A1FC00B99E0200343D0020FA0A0300D00A030085
:10A20C001C0B03002A0B0300A8DF7047AADF704762
:10A21C00ACDF7047AEDF704762DF7047F0B50E46BB
:10A22C0095B0054600287CD000297AD04FF6FF73F4
:10A23C0043813D4B04AA03F1100C1746186859686A
:10A24C00144603C4083363452246F7D105F10C01CB
:10A25C003846FFF7E1FF044600285FD12B7B8DF8D1
:10A26C000A302A464FF4A05302A90120ADF8083059
:10A27C00FFF7CAFF0446002850D101460322684666
:10A28C0005F0CEFD41F21113ADF800309DF802300F
:10A29C00012262F3420321461C220DA88DF80230E4
:10A2AC0005F0BEFD9DF834300E9401AF23F01A0377
:10A2BC0043F01A032146032238468DF83430CDE999
:10A2CC001044CDE9124405F0ABFDB3788DF80430A1
:10A2DC00F3788DF805309DF8063023F01F0343F01A
:10A2EC0002038DF806302B7B8DF80E30214641F29F
:10A2FC000143142208A8ADF80C3005F091FD03AB16
:10A30C00CDE908371B230A93ADF82C302B4608AA4D
:10A31C0033F8020B0DA9FFF779FF0446204615B060
:10A32C00F0BD0E24FAE700BF4C0B030070B50D46D0
:10A33C0086B01646044670B308220021684605F024
:10A34C006FFD00236A4661886089ADF80060ADF846
:10A35C0002300195FFF75CFFD8B962894FF6FF73A5
:10A36C009A421AD00146102202A805F059FD6388C2
:10A37C00ADF8083001238DF80A30BDF80230ADF885
:10A38C000C3002A9019B6089CDF810D00593FFF722
:10A39C0041FF06B070BD0E20FBE70820F9E7000076
:10A3AC007FB504460E4649B140B10388112B07D046
:10A3BC00502B08D0102B01D18388738104B070BD51
:10A3CC004FF6FF73F9E7C2884B889A42F6D1204BBF
:10A3DC00204D028A2049ED1AED082D0445F00305A5
:10A3EC002846FCF713FB228A04F112012846FCF7DD
:10A3FC003BFBA37C012B10D0022BDFD104F113010A
:10A40C00062202A805F0E3FC02A800F081F9627EA6
:10A41C0004F11A0100F008FA0DE0062204F1130110
:10A42C0002A805F0D4FC2846062202A9FCF71CFB66
:10A43C0002A800F08FF9042201900DEB02013046C6
:10A44C00FFF774FF0028B9D0FCF7BEFCB6E700BFDD
:10A45C0010000300500003005C0B0300034B186852
:10A46C00036903B970471846FAE700BF384100206A
:10A47C0073B51E46144C154BE41AE40824046D46BF
:10A48C0044F0030485E8060020461149FCF7BAFAAB
:10A49C00294606222046FCF7E7FA142005F012FCA8
:10A4AC00024695E8030000231361106091809671B9
:10A4BC00FFF7D4FF074BD0601B68D3F804359360CB
:10A4CC00026102B070BD00BF500003001000030019
:10A4DC007F0B0300440B030070B586B06C46114B28
:10A4EC0084E803001B681B6913B9184606B070BDDD
:10A4FC0093E803000290ADF80C1094E803000622D8
:10A50C000490ADF8141004A802A911F8016B10F80E
:10A51C00015BAE42E7D1013A12F0FF02F5D1012006
:10A52C00E4E700BF3841002070B586B06C46104B94
:10A53C0084E803001B681B69B3B193E80300029025
:10A54C00ADF80C1094E8030006220490ADF814103A
:10A55C0002A804A910F8016B11F8015BAE42EAD114
:10A56C00013A12F0FF02F5D1184606B070BD00BFDB
:10A57C003841002073B56D4685E8030095E803006B
:10A58C001646FFF7A9FF00B3134B144C1449E41AF9
:10A59C00E408240444F003042046FCF733FA0622B2
:10A5AC0029462046FCF760FA32460E492046FCF755
:10A5BC002DFA95E80300FFF7B7FF0B4B86711B686C
:10A5CC00D3F80435836002B070BD334695E80600BD
:10A5DC000020FFF74DFFF6E71000030050000300CA
:10A5EC00900B03009F0B0300440B0300704700000B
:10A5FC0013B5244B244C2549E41AE408240444F0F4
:10A60C0003042046FCF7FEF940F20113ADF80430C8
:10A61C001F4A022301A913208DF80630FFF75AF8C0
:10A62C0008B1FCF7D1FB1A4A01A90620FFF752F832
:10A63C0008B1FCF7C9FB164A01A91A20FFF74AF822
:10A64C0008B1FCF7C1FB124A01A90A20FFF742F836
:10A65C0008B1FCF7B9FB01211320FFF7AFF801217A
:10A66C000620FFF7ABF801211A20FFF7A7F801210C
:10A67C000A20FFF7A3F807492046FCF7C3F902B0FC
:10A68C0010BD00BF1000030050000300AA0B030014
:10A69C00F9A50200C30B03000622013105F097BB9C
:10A6AC000649082310F0010F14BF00220A46013B93
:10A6BC0082EA5000F6D180F07F4070472083B8EDDD
:10A6CC002DE9F843114D2E6804460F4690464EB9BD
:10A6DC00A9463046FFF7E4FF0136B6F5807F49F80E
:10A6EC00040BF6D120462744B84201D1BDE8F883CB
:10A6FC00D8F8002010F8013B5340DBB255F823305A
:10A70C0083EA1223C8F80030EEE700BF3C4100207A
:10A71C0037B5002301930C4C0C4B0D49E41AE4089B
:10A72C00240444F0030405462046FCF76BF9294643
:10A73C0020460622FCF798F9284601AA0621FFF7C5
:10A74C00BFFF019803B030BD5000030010000300A0
:10A75C00540C03002DE9F04786B0FFF7D9FF234CCA
:10A76C00234BDFF8A0802349E41AE408240444F0C6
:10A77C000304054602462046FCF748F92F0C5922E3
:10A78C000021404605F04CFB1FFA87FA00231FFA04
:10A79C0085F9CDE903330593CDE9013303AA01AB68
:10A7AC0049465046FDF7D8FC064638B912492046B2
:10A7BC00FCF728F9304606B0BDE8F0870F4917239F
:10A7CC0003A8A1F800A0A1F80290C1F804808B6046
:10A7DC00FDF76CFC08B1FCF7F7FAABB23A46084946
:10A7EC002046FCF71CF92E46E4E700BF500003009E
:10A7FC0010000300E30B0300FE0B03009845002040
:10A80C001C0C03003C450020054A064B9B1ADB0838
:10A81C001B040146592243F00300FCF725B900BF85
:10A82C0010000300500003002DE9F04F3A4B3B4C55
:10A83C00E41AE4088BB0240444F00304019191461B
:10A84C008046024636492046FCF7E0F8B9F1140F71
:10A85C0005D934492046FCF7D5F8012656E00023EB
:10A86C004FEA184B1FFA88FACDE907330993CDE963
:10A87C00033307AA03AB51465846FDF76DFC064659
:10A88C00002847D128492046FCF7BCF805A907A8A1
:10A89C00CDE90566FDF7C4FB08B1FCF795FA234F2B
:10A8AC0006995922384605F092FA97F858502049E3
:10A8BC00013505F00305204616242B4604FB0574D0
:10A8CC004246FCF7ACF84A460199204605F07FFA5F
:10A8DC0001236375384684F8149087F85850FFF7B5
:10A8EC0093FF144B172207A8A3F800B0A3F802A0FB
:10A8FC005F609A60FDF7B8FB08B1FCF765FA0D498B
:10A90C0007A8FDF7D7FB08B1FCF75EFA30460BB091
:10A91C00BDE8F08F08499DE71000030050000300CC
:10A92C00DE0C0300F40C0300B30C03003C450020C8
:10A93C00050D030098450020380D03000369C1681C
:10A94C008B429DBF8268D21802F1FF3203F1FF33B4
:10A95C0094BF501A581A70472DE9F041D0E902748F
:10A96C0005463E1B4068964220448846144404D950
:10A97C0005F02DFAEC60BDE8F0813246E41B05F0E1
:10A98C0026FA224608EB06016868F1E72DE9F84340
:10A99C00C5680646894617464FF000083469B36807
:10A9AC007068A54228BFE418013C621B5C1BBC42CA
:10A9BC0028BF3C46944228BF1446494628442246A8
:10A9CC0005F005FAB3682544AB4208BF00253F1BD0
:10A9DC00A044A144F560E1D14046BDE8F8830000F5
:10A9EC0010B5114C114AA2610223C4E90433104B77
:10A9FC00E361A2644FF400730E4A2362E264002305
:10AA0C0010220D49A362E01D6362E362A3656365D6
:10AA1C00E365226505F037FA0849204605F033FA5C
:10AA2C002023A37110BD00BFA4450020500D0300CE
:10AA3C002C4600201C460020590D03005D0D030020
:10AA4C00F8B5184C182300FB033503FB00402544D4
:10AA5C00C46A012C0F46164611D024B1022C1BD00F
:10AA6C0000242046F8BD2846FFF768FFB042F8D313
:10AA7C00324639462846FFF76FFF3446F1E7284641
:10AA8C00FFF75CFF8642344628BF0446224639460F
:10AA9C002846FFF761FFE4E72846BDE8F840FFF7DA
:10AAAC0075BF00BFA4450020FFF79ABF6DDF70474C
:10AABC0079DF70477DDF704764DF70472DE9F04F19
:10AACC0085B000250E9CBDF83CB0278801918046CE
:10AADC0091469A462E46B8F80020B2420CDC3DB1A5
:10AAEC002288013AD21B92B2FF2A3BD80AF80720DF
:10AAFC00002005B0BDE8F08FD8F8042052F82600ED
:10AB0C00039000220DF10B0103A8FFF7D5FF0028DD
:10AB1C00EFD19DF80B204A4522D12288002D14BF7D
:10AB2C000020022002EB0901014459451ADC45B909
:10AB3C00013292B2019B22800AF802302288013243
:10AB4C00228022880DF10B01524403A8FFF7B4FFB9
:10AB5C000028CED121889DF80B200A4422800125A3
:10AB6C000136B8E70C20C4E72DE9F341089CBDF889
:10AB7C0024501746CDE90045022206469846FFF7B9
:10AB8C009DFF50B94346102239463046CDE9084561
:10AB9C0002B0BDE8F041FFF791BF02B0BDE8F08113
:10ABAC002DE9F04F00231688138090F82D3085B0D6
:10ABBC0007460D46144653B3082E01D80C2027E146
:10ABCC0002A8FFF773FF002840F022812388082297
:10ABDC00EA54238801339BB21B222380EA54208839
:10ABEC00013080B2208006220DF10901284405F0C5
:10ABFC00EEF823889DF8082006339BB212F0FE0273
:10AC0C0018BF01222380EA54238801332380BB78A8
:10AC1C00FBB123880433B342D0D802A8FFF748FF16
:10AC2C00002840F0F58023880322EA54238801335E
:10AC3C009BB219222380EA542388BDF808200133E3
:10AC4C009BB2E9182380EA54120A4A702388023313
:10AC5C002380FA789AB12388D91CB142AED802214C
:10AC6C00E954238801339BB201212380E9542388C2
:10AC7C000B449BB22380EA5423880B4423807A68CC
:10AC8C00AAB12388D91CB14298D8022192F900208C
:10AC9C00E954238801339BB20A212380E954238889
:10ACAC0001339BB22380EA542388013323803B89F0
:10ACBC00002B40F0A1803B8A5BB1CDE900462B46CE
:10ACCC000722032107F11000FFF74EFF002840F088
:10ACDC009F803B8B5BB1CDE900462B46152214219E
:10ACEC0007F11800FFF740FF002840F091803A6A06
:10ACFC00002A40F09080D7F82480B8F1000F30D0B3
:10AD0C00B8F804302188981C8A1C0244B2423FF6E1
:10AD1C0055AFFE283FF652AF03336B5423880133F3
:10AD2C009BB2FF222380EA54238801339BB22380F9
:10AD3C00B8F80020EA54E918120A4A702088023048
:10AD4C0080B22080B8F804205AB1D8F80810002935
:10AD5C006BD0284405F03BF82388B8F80420134442
:10AD6C00238097F82C30002B40F09A8038780028FC
:10AD7C004ED03B88012B58D0228802F1020CB445EE
:10AD8C003FF61CAF012805D17B78023313449E4259
:10AD9C00FFF414AF023EB61AB6B202A905EB0C00D2
:10ADAC00ADF80860FFF786FE90BB3978BDF8082037
:10ADBC00022900F0BA807B78934202D3B24240F26F
:10ADCC00B280012940F0B3809BB29E42C0F0AF80AC
:10ADDC00ADF808300821BDF80830FE2B3FF6EEAE7A
:10ADEC0022880133AB542288013292B22280A954BA
:10ADFC002288134423800BE0CDE900462B46062223
:10AE0C00022107F10800FFF7AFFE00283FF453AF13
:10AE1C0005B0BDE8F08FB4F800C00CF10603B342E6
:10AE2C003FF6CCAE1188052901D80720F0E76FF466
:10AE3C00486E01EB0E039BB24FF27D3E7345F4D985
:10AE4C005388052BF1D96FF44860181880B27045FF
:10AE5C00EBD94FF6FF70814203D0834201D0994267
:10AE6C00E3D8052305F80C30238801339BB212215B
:10AE7C002380E954238801339BB223801188E95441
:10AE8C00E818090A4170238802339BB22380528848
:10AE9C00EA54E918120A4A702388023323802AE7FD
:10AEAC00BB6A002BC1D04FF000094FF00C0A4FF0D9
:10AEBC00160B97F82C305FFA89F293427FF656AF57
:10AECC00B96A0AFB02F201EB0208B8F80430981CCC
:10AEDC00FE283FF673AE208803332B5423880133AE
:10AEEC009BB2238005F803B0238801339BB22380E7
:10AEFC008A5AEA54E918120A4A702088023080B241
:10AF0C002080B8F804205AB1D8F8081000298CD049
:10AF1C00284404F05CFF2388B8F8042013442380F1
:10AF2C0009F10109C5E7092155E7B242FBD9ADF892
:10AF3C0008604FE770B5C0B14AB116880024B4421E
:10AF4C0003D305196D789D4208D0A14201D8002089
:10AF5C000BE0055D01352C44A4B2F0E7A142F6D913
:10AF6C00A31C1380005D013880B270BD13B50023A3
:10AF7C00ADF8063013460DF106020446FFF7DAFF72
:10AF8C0010B1BDF80600204402B010BDF7B5002387
:10AF9C000746ADF80630144612B9002003B0F0BDD8
:10AFAC0009230DF10602FFF7C5FFBDF80650064652
:10AFBC00002DF2D00028F0D0204604F0ADFFB042B6
:10AFCC000246EAD17919204604F0C6FEB0FA80F0A8
:10AFDC004009E3E7F0B587B0002306460D4610465E
:10AFEC00ADF8063002AA10230DF105018DF80530DD
:10AFFC00FFF762FD16B9002007B0F0BD0028FAD1AA
:10B00C009DF80540042C2BD0102C2BD0022CF3D106
:10B01C000323BDF806207AB90DF106022946304605
:10B02C00FFF788FFBDF806302BB923460DF1060259
:10B03C003046FFF77FFF0546BDF80670002FDAD0CB
:10B04C000024A542D7D9E0199DF8052002A9304467
:10B05C0004F082FE48B19DF805301C44A4B2F0E720
:10B06C000523D6E706240723D3E70120C4E772DFC4
:10B07C00704773DF704738B5012204460D46B0F8AF
:10B08C003812D0F83402FFF771FF00B1057004F1EB
:10B09C003C0204F50D7104F15400BDE83840FFF793
:10B0AC00E6BF80F830107047F8B504460F4600290B
:10B0BC0075D0002873D091F87A301BB191F8983084
:10B0CC00002B6ED1D7F8A030042B6AD0D7F89C3067
:10B0DC00042B66D007F178060FCE4FF0000C251D1F
:10B0EC0084F802C00FC50FCE0FC596E8070085E89F
:10B0FC00070084F830C0D7F8A4306363D7F8A830C1
:10B10C00A3634FF6FF7504F50D73C4F84432A4F82D
:10B11C0048520722614604F24A2004F081FE23784B
:10B12C000BB984F8545094F82430002B14BFEE2340
:10B13C001F2304F15501C4F83412A4F8383204F575
:10B14C000E723846FFF72CFD40BB94F82430002BD0
:10B15C0014BFEE231F2304F24311C4F83C12A4F8CD
:10B16C00403204F5107207F13C00FFF719FDA8B945
:10B17C00A369A4F848304FF480730125A4F850302B
:10B18C0063692064014684F83C50636404F13C021A
:10B19C0004F15400FFF76BFF00B92570F8BD0E20C9
:10B1AC00FCE70720FAE7F8B5077804460D46002FB0
:10B1BC0000F0048100F24A26A170072200213046DB
:10B1CC0004F02EFEE38813B1A378012B04D0E379AD
:10B1DC004BB1A378022B06D1636BA3B1012284F887
:10B1EC00512208209847334604F5147113F8012FA7
:10B1FC0012B98B42FAD117466B1E032B52D8DFE8DB
:10B20C0003F0050B0F1284F85132ECE7A3791BB154
:10B21C0094F8243003B95FB9E3790BB1002F43D113
:10B22C00237A002B42D1637A002B0CBF0025042516
:10B23C00636BA570002B3BD0033D012D38D8627990
:10B24C00002A35D094F8522292BB84F85422012261
:10B25C0084F853220720984704F13C05182200215A
:10B26C00284604F0DDFDE36A94F82420581E0121E1
:10B27C00022828BF0B4684F83C1084F8513032B1B8
:10B28C00884296BFA36A84F8521084F85230A17891
:10B29C00002384F8503004291BD8DFE801F0770D27
:10B2AC00223559000025C3E70225C1E70325BFE776
:10B2BC00002384F85332CFE7C4F84432C4E9106356
:10B2CC000223012284F83C30802384F83120A4F836
:10B2DC004830A378002B5CD1636B002B6AD1002023
:10B2EC0067E00223002A84F8313014BF07230323BC
:10B2FC0084F83C302369A4F848300023C4F8443265
:10B30C00E36826646364E4E763696364A369A4F88F
:10B31C00483012B1062384F83C306379B3B194F809
:10B32C0052329BB994F8543283B1022384F85030D2
:10B33C0004212046FFF79FFE0028CAD1052384F87C
:10B34C00313004F50D73C4F84432C2E70323F6E739
:10B35C00E3696364236AA4F8483012B1062384F8C5
:10B36C003C30637983B194F852326BB994F854320F
:10B37C0053B1022384F8503004212046FFF77BFEA2
:10B38C000028A6D10623DAE70423D8E784F8313065
:10B39C009FE72A46D4F8441204F15400FFF767FEE5
:10B3AC0038B994F8301094F85400FFF762FE002876
:10B3BC0092D0F8BD94F83100984790E70820F8E750
:10B3CC000388112B10B50C460AD0262B1FD0102B3E
:10B3DC0005D1C37B012B02D18388A1F8483210BD63
:10B3EC000022838881F85222B1F848229A42F6D181
:10B3FC000B79002BF3D101212046FFF7D4FE002856
:10B40C00EDD0A36B002BEAD0BDE810401847037AAF
:10B41C00013B012BE3D8897805230131B1FBF3F310
:10B42C0003EB8303C91AC9B2E6E7704775DF7047AF
:10B43C0076DF70477ADF70477BDF7047034B1A88E3
:10B44C0082420CBF18460020704700BF48480020BD
:10B45C00024B9B6903B11847704700BF2C48002072
:10B46C0073B586B23046FFF7E9FF044670B1164D4E
:10B47C00027A2B7B9A420BD200F10A013046FFF77D
:10B48C00D5FFE8B1112801D0FFF7E2FF02B070BD83
:10B49C00002303722B7C43B13B213046FFF7C8FFDE
:10B4AC0030F0080301D0FFF7D3FF6B69002BEDD010
:10B4BC0000228DF80420ADF8066001A89847E5E756
:10B4CC00237A01332372E1E72C48002013B50B4695
:10B4DC00497A0F4C024669B9D4E901101C7A002C48
:10B4EC0018BF01465868FBF709FF08B1FFF7B0FF1A
:10B4FC0002B010BD002119726369002BF8D0012134
:10B50C00ADF806008DF8041001A89847F0E700BFCD
:10B51C002C4800204B8802889A4213D842889A42C1
:10B52C0010D380888A8840F2F313984294BF031A90
:10B53C00C31A934206D800F2F310904234BF002095
:10B54C0001207047002070470388112B70B501460D
:10B55C0048D002D8102B1ED070BD122B52D0502BBD
:10B56C00FAD12F4BC288DB899A42F5D1038A022B80
:10B57C00F2D186883046FFF761FF05460028EBD0F4
:10B58C0001F1120000F0AEFC30BB6868FBF7FCFE6A
:10B59C000028E1D009E0C37B012BDDD14FF6FF7011
:10B5AC00FFF74CFF054620B90420BDE87040FFF7BB
:10B5BC004FBF1C4A8E880680002303721368C5F89F
:10B5CC000A300A30536843601031FFF7A3FF144B65
:10B5DC006872DB89002BBFD129463046BDE870402C
:10B5EC00FFF774BF8088FFF729FF04460028B3D00B
:10B5FC004068FBF7C9FE08B1FFF72AFF4FF6FF734F
:10B60C002380A9E786883046FFF718FF05460028F7
:10B61C00A2D008310A30FFF77DFF6872DCE700BF6B
:10B62C002C4800205C480020F8B5064648B3054677
:10B63C000FCD154F3C460FC495E8070084E8070072
:10B64C003068124C3C60B0B1FFF7F4FEC0B9326800
:10B65C0013682360536863600D480E4A4FF6FF73FE
:10B66C0003800D4B40F8043F0021FBF735FE00280A
:10B67C0018BF032004E02046FFF7DEFE0028EBD0C5
:10B68C00F8BD0E20FCE700BF2C4800205C480020D1
:10B69C00484800206DB4020064480020F7B51746F6
:10B6AC0001900E4691B1019C6CB100252C462946A7
:10B6BC0001A8FCF74BFE18B13946A8B2B0470134CB
:10B6CC000135142DF3D1204603B0F0BD0C46FAE73A
:10B6DC0073B50191019C06466CB100252C46294698
:10B6EC0001A8FCF733FE18B106EB440301349D802E
:10B6FC000135142DF3D13046346002B070BD00001A
:10B70C002DE9F04703888488112B8CB006463CD079
:10B71C001A2B3FD0102B17D1274DAB68DB4300936E
:10B72C0069686846FCF773FE009901A8FFF7D0FF23
:10B73C000DF108094FF00008019B984507D3132C15
:10B74C0013D90420FBF740FB0CB0BDE8F08739F8A7
:10B75C0002AB00270137514605EB8700FCF7ECFDE7
:10B76C001D2FF7D108F10108E6E721461348FCF735
:10B77C00CCFD21461248FCF7C8FDF37B012BE3D02E
:10B78C0010482146FCF7C1FDDEE70C482146FCF7CA
:10B79C00D3FDD9E7057A0C482D09012D214606D990
:10B7AC00FCF7B3FD022D21460848F0D0EAE7FCF780
:10B7BC00C3FD21460548EAE7844800208C48002058
:10B7CC008848002090480020944800209848002089
:10B7DC0037B5002401902546214601A8FCF7B6FD9B
:10B7EC0000B101350134142CF6D1284603B030BD1C
:10B7FC001328014602D80248FCF7A8BD0020704768
:10B80C008848002010B50446FFF7F2FF38B12146F6
:10B81C000348FCF79BFD002814BF0220012010BD3B
:10B82C009048002010B50446FFF7E2FF38B12146DE
:10B83C000348FCF78BFD002814BF0220012010BD2B
:10B84C008C48002010B50446FFF7D2FF28B12146E2
:10B85C000248BDE81040FCF779BD10BD94480020AB
:10B86C0010B50446FFF7C4FF28B121460248BDE8D5
:10B87C001040FCF76BBD10BD9848002007B5064B77
:10B88C00DA680192996801A8FCF7C1FD0198FFF7ED
:10B89C009FFF03B05DF804FB8448002008B5182115
:10B8AC000248FCF75CFDC0B208BD00BF8448002014
:10B8BC0070B50A4D064628460C46FCF747FD58B1B4
:10B8CC003046FFF795FF38B1A01D314605EB8000DF
:10B8DC00BDE87040FCF73ABD002070BD84480020E4
:10B8EC00F8B50D4C054620460E461746FCF72EFDC6
:10B8FC0080B12846FFF77CFF60B1B01D04EB8000DF
:10B90C0029461FB1BDE8F840FCF7FFBCBDE8F84084
:10B91C00FCF712BDF8BD00BF84480020F8B50A4CF6
:10B92C0005460E46014620461746FCF70FFD48B16A
:10B93C00043504EB85043A46A0683146BDE8F8406E
:10B94C00FFF7ACBEF8BD00BF844800209BDF7047FA
:10B95C009DDF70479EDF704730B50B4B19680B4B62
:10B96C000022914201D1002009E09D788478A54203
:10B97C0006D11D880488A54202D1054B186830BD3C
:10B98C0001320433EDE700BF044900200C4C0020C9
:10B99C00FC48002070B590F8C63216467622A0B04E
:10B9AC0002FB03000D46FFF7D7FF044660B17C2273
:10B9BC00002101A804F034FA01238DF80430ADF80D
:10B9CC000660029501A8A04720B070BD2DE9F74F85
:10B9DC008B4690F8C61201927623804601FB030039
:10B9EC000091FFF7B9FF814670B3194E3568052DEC
:10B9FC002AD8184C0099019A4FEAC51A04EB0A0789
:10BA0C00762303FB01817A80381D1A4604F0DFF996
:10BA1C00BBF1000F14BF0023022304F80A300E4BB5
:10BA2C00C7F87C901A680135954235601D460BD1DC
:10BA3C000027E36F204698472B6801379F4204F19B
:10BA4C008004F6D30023336003B0BDE8F08F00BF51
:10BA5C00084C0020084900200449002037B590F814
:10BA6C00C53290F8C6220C46C3B1013B7621DBB23D
:10BA7C005143122505FB031303445B8A01339BB22C
:10BA8C00ADF80430762303FB020201A91389ADF84B
:10BA9C0006302046FFF75CFF03B030BD762303FB76
:10BAAC000203DB88ECE7000070B54FF433720E46EE
:10BABC000021044604F0B4F9114BA4F8CA62002525
:10BACC001D60104B84F8C9521B6884F8C65284F868
